:100000000C9462000C948A000C948A000C948A0070
:100010000C948A000C948A000C948A000C948A0038
:100020000C948A000C948A000C948A000C948A0028
:100030000C948A000C948A000C948A000C948A0018
:100040000C94EF020C948A000C94BD020C9497025D
:100050000C948A000C948A000C948A000C948A00F8
:100060000C948A000C948A000000000024002700F1
:100070002A0000000000250028002B0000000000DE
:1000800023002600290004040404040404040202DA
:100090000202020203030303030301020408102007
:1000A0004080010204081020010204081020000012
:1000B0000008000201000003040700000000000027
:1000C0000000340511241FBECFEFD8E0DEBFCDBF46
:1000D00011E0A0E0B1E0EAEAFEE002C005900D9276
:1000E000AC33B107D9F721E0ACE3B1E001C01D9218
:1000F000A23EB207E1F710E0C2E6D0E004C02197CB
:10010000FE010E944D07C136D107C9F70E9439038D
:100110000C9453070C940000AF92BF92CF92DF92E1
:10012000EF92FF920F931F93CF93DF936C017B01AC
:100130008B01040F151FEB015E01AE18BF08C0173D
:10014000D10759F06991D601ED91FC910190F081B0
:10015000E02DC6010995892B79F7C501DF91CF9173
:100160001F910F91FF90EF90DF90CF90BF90AF90D5
:100170000895FC01538D448D252F30E0842F90E0AD
:10018000821B930B541710F0CF9608950197089592
:10019000FC01918D828D981761F0A28DAE0FBF2F5B
:1001A000B11D5D968C91928D9F5F9F73928F90E0B1
:1001B00008958FEF9FEF0895FC01918D828D981720
:1001C00031F0828DE80FF11D858D90E008958FEF5D
:1001D0009FEF0895FC01918D228D892F90E0805C26
:1001E0009F4F821B91098F739927089585E491E0B1
:1001F0000E94EA0021E0892B09F420E0822F089573
:1002000080E090E0892B29F00E94F60081110C9487
:1002100000000895FC01A48DA80FB92FB11DA35AA9
:10022000BF4F2C91848D90E001968F739927848F16
:10023000A689B7892C93A089B1898C918370806439
:100240008C93938D848D981306C00288F389E02DDA
:1002500080818F7D80830895EF92FF920F931F938B
:10026000CF93DF93EC0181E0888F9B8D8C8D981369
:100270001AC0E889F989808185FF15C09FB7F89475
:10028000EE89FF896083E889F989808183708064C1
:1002900080839FBF81E090E0DF91CF911F910F910C
:1002A000FF90EF900895F62E0B8D10E00F5F1F4F1B
:1002B0000F731127E02E8C8D8E110CC00FB607FC2A
:1002C000FACFE889F989808185FFF5CFCE010E94B8
:1002D0000A01F1CFEB8DEC0FFD2FF11DE35AFF4F1B
:1002E000F0829FB7F8940B8FEA89FB898081806246
:1002F000CFCFCF93DF93EC01888D8823B9F0AA8903
:10030000BB89E889F9898C9185FD03C0808186FDD0
:100310000DC00FB607FCF7CF8C9185FFF2CF80811F
:1003200085FFEDCFCE010E940A01E9CFDF91CF9189
:100330000895833081F028F4813099F08230A9F05B
:1003400008958730A9F08830C9F08430B1F48091E5
:1003500080008F7D03C0809180008F778093800024
:10036000089584B58F7784BD089584B58F7DFBCFC4
:100370008091B0008F778093B00008958091B00095
:100380008F7DF9CF1F93CF93DF93282F30E0F901B2
:10039000E255FF4F8491F901E656FF4FD491F901E0
:1003A000EA57FF4FC491CC23A9F0162F81110E9468
:1003B0009901EC2FF0E0EE0FFF1FEE58FF4FA591D3
:1003C000B4918FB7F894EC91111108C0D095DE2349
:1003D000DC938FBFDF91CF911F910895DE2BF8CF73
:1003E000CF93DF9390E0FC01E656FF4F24918A57AC
:1003F0009F4FFC0184918823D1F090E0880F991FD2
:10040000FC01E859FF4FA591B491FC01EE58FF4F54
:10041000C591D491623071F49FB7F8943C91822FCA
:10042000809583238C93E8812E2B28839FBFDF91B7
:10043000CF9108958FB7F894EC912E2B2C938FBF0A
:10044000F6CF3FB7F8948091410190914201A0917D
:100450004301B091440126B5A89B05C02F3F19F078
:100460000196A11DB11D3FBFBA2FA92F982F882734
:10047000BC01CD01620F711D811D911D42E0660F0F
:10048000771F881F991F4A95D1F70895FC010190A5
:100490000020E9F73197AF01481B590BBC0185E4F7
:1004A00091E00C948C008F929F92AF92BF920F9329
:1004B0001F93CF93DF93CDB7DEB7A1970FB6F89414
:1004C000DEBF0FBECDBF19A2423008F44AE08E0154
:1004D0000F5D1F4F842E912CB12CA12CA5019401EE
:1004E0000E942B07E62FB901CA01EA30F4F4E05D5F
:1004F000D801EE938D01232B242B252B79F790E047
:1005000080E0109719F0CD010E944602A1960FB627
:10051000F894DEBF0FBECDBFDF91CF911F910F9139
:10052000BF90AF909F908F900895E95CE1CF1F92AC
:100530000F920FB60F9211242F933F934F935F9317
:100540006F937F938F939F93AF93BF93EF93FF939B
:1005500085E491E00E940A01FF91EF91BF91AF9174
:100560009F918F917F916F915F914F913F912F91CB
:100570000F900FBE0F901F9018951F920F920FB6FD
:100580000F9211242F938F939F93EF93FF93E091FA
:100590005501F09156018081E0915B01F0915C0181
:1005A00082FD1BC0908180915E018F5F8F732091CF
:1005B0005F01821741F0E0915E01F0E0EB5BFE4FDE
:1005C000958F80935E01FF91EF919F918F912F9175
:1005D0000F900FBE0F901F9018958081F4CF1F923F
:1005E0000F920FB60F9211242F933F938F939F93E7
:1005F000AF93BF9380913D0190913E01A0913F0147
:10060000B091400130913C0123E0230F2D3758F584
:100610000196A11DB11D20933C0180933D01909353
:100620003E01A0933F01B093400180914101909120
:100630004201A0914301B09144010196A11DB11D59
:100640008093410190934201A0934301B0934401F0
:10065000BF91AF919F918F913F912F910F900FBEBE
:100660000F901F90189526E8230F0296A11DB11D2B
:10067000D2CF789484B5826084BD84B5816084BD16
:1006800085B5826085BD85B5816085BD80916E0030
:10069000816080936E001092810080918100826061
:1006A000809381008091810081608093810080919E
:1006B00080008160809380008091B100846080938D
:1006C000B1008091B00081608093B00080917A0089
:1006D000846080937A0080917A00826080937A00AF
:1006E00080917A00816080937A0080917A0080689E
:1006F00080937A001092C10062E088E00E94F001CD
:1007000061E08BE00E94F00161E08CE00E94F0016A
:1007100061E08DE00E94F00160E08BE00E94C20188
:1007200060E08CE00E94C20160E08DE00E94C201A6
:10073000E0915501F091560182E08083E0915101F2
:10074000F09152011082E0915301F091540187E63B
:10075000808310925D01E0915901F0915A0186E089
:100760008083E0915701F0915801808180618083FE
:10077000E0915701F0915801808188608083E09179
:100780005701F0915801808180688083E091570182
:10079000F091580180818F7D808320E4322E36EBEA
:1007A000832E30E0932EC2EAD0E00EE810E040E065
:1007B000A42E40E0B42E30927C0080917A008064B8
:1007C00080937A0080917A0086FDFCCF809178003A
:1007D00060917900762F682F072E000C880B990BFB
:1007E0000E9404062AE038E240EA5BE30E94B90670
:1007F0006B017C01F4018491FE017490F801649016
:10080000662009F461C081110E949901E62DF0E093
:10081000EE0FFF1FE458FF4FA591B4918C91782201
:1008200009F452C060E08BE00E94C20160E08CE0FD
:100830000E94C20160E08DE00E94C20182E191E06D
:100840000E944602A7019601C701B6010E94260731
:10085000882309F477C08CE291E00E94460288E385
:1008600091E00E9446020E9421022B013C018CE291
:10087000C82EDD24D394E12CF12C0E9421026419AE
:10088000750986099709683E734081059105A8F3AB
:10089000F1E0CF1AD108E108F10828EE420E23E07A
:1008A000521E611C711CC114D104E104F10429F72A
:1008B000A114B10409F47FCF0E94F600882309F443
:1008C0007ACF0E94000077CF20E030E040E050E493
:1008D000C701B6010E94CE0587FF0AC060E08BE029
:1008E0000E94C20160E08CE00E94C20161E0A3CFDF
:1008F00020E030E040E050E4C701B6010E94B406B9
:1009000087FD15C020E030E040E850E4C701B601A3
:100910000E94CE0587FF0BC060E08BE00E94C20101
:1009200060E08DE00E94C20161E08CE085CF60E074
:100930008DE00E94C20160E08CE00E94C20161E093
:100940008BE07ACF26013701E89477F82FEF3FEF5D
:100950004FE75FE7C301B2010E94260781110DC076
:100960002FEF3FEF4FE75FE7C301B2010E94CE05D3
:1009700018161CF480E391E070CF2FEF3FEF4FE7A4
:100980005FE4C701B6010E94B40618161CF484E3A4
:1009900091E063CF2FEF3FEF4FE75FECC701B60168
:1009A0000E94CE0587FDF3CF20E030E0A901C7010A
:1009B000B6010E94CE0587FF09C06DE285E491E093
:1009C0000E942C01F7FAF094F7F8F0942AE037ED42
:1009D00043EA5BE3C701B6010E9462052B013C01BB
:1009E0000E94D3056B017C010E9402069B01AC01B1
:1009F000C301B2010E9461052B013C014AE0C7011D
:100A0000B6010E9453026EE285E491E00E942C013F
:100A100020E030E040E251E4C301B2010E94B90697
:100A20002B013C010E94D3056B01F12CE12C4AE023
:100A3000C701B6010E945302C701B6010E94020617
:100A40009B01AC01C301B2010E94610520E030E0CE
:100A500040E251E40E94B9060E94D30590E080E094
:100A60004AE00E945302FBCEE5E4F1E013821282D9
:100A700088EE93E0A0E0B0E084839583A683B783FB
:100A800084E091E09183808385EC90E09587848772
:100A900084EC90E09787868780EC90E0918B808B48
:100AA00081EC90E0938B828B82EC90E0958B848B31
:100AB00086EC90E0978B868B118E128E138E148E9F
:100AC00008955058BB27AA270E9479050C947A06EE
:100AD0000E946C0638F00E94730620F039F49F3FA4
:100AE00019F426F40C9469060EF4E095E7FB0C94D7
:100AF0006306E92F0E948B0658F3BA176207730743
:100B00008407950720F079F4A6F50C94AD060EF451
:100B1000E0950B2EBA2FA02D0B01B90190010C010D
:100B2000CA01A0011124FF27591B99F0593F50F425
:100B3000503E68F11A16F040A22F232F342F44277D
:100B4000585FF3CF469537952795A795F040539575
:100B5000C9F77EF41F16BA0B620B730B840BBAF045
:100B60009150A1F0FF0FBB1F661F771F881FC2F7B0
:100B70000EC0BA0F621F731F841F48F487957795C4
:100B80006795B795F7959E3F08F0B0CF9395880F7E
:100B900008F09927EE0F9795879508950E943F06D4
:100BA00008F481E008950E94930688F09F5798F01A
:100BB000B92F9927B751B0F0E1F0660F771F881F62
:100BC000991F1AF0BA95C9F714C0B13091F00E947C
:100BD000AD06B1E008950C94AD06672F782F8827F5
:100BE000B85F39F0B93FCCF3869577956795B395A3
:100BF000D9F73EF490958095709561957F4F8F4F12
:100C00009F4F0895E89409C097FB3EF49095809516
:100C1000709561957F4F8F4F9F4F9923A9F0F92FC2
:100C200096E9BB279395F695879577956795B79540
:100C3000F111F8CFFAF4BB0F11F460FF1BC06F5F26
:100C40007F4F8F4F9F4F16C0882311F096E911C038
:100C5000772321F09EE8872F762F05C0662371F059
:100C600096E8862F70E060E02AF09A95660F771F6D
:100C7000881FDAF7880F9695879597F90895990F49
:100C80000008550FAA0BE0E8FEEF16161706E80756
:100C9000F907C0F012161306E407F50798F0621B77
:100CA000730B840B950B39F40A2661F0232B242B4C
:100CB000252B21F408950A2609F4A140A6958FEF6B
:100CC000811D811D089597F99F6780E870E060E0BD
:100CD00008959FEF80EC089500240A9416161706D5
:100CE00018060906089500240A941216130614061D
:100CF00005060895092E0394000C11F4882352F080
:100D0000BB0F40F4BF2B11F460FF04C06F5F7F4F37
:100D10008F4F9F4F089557FD9058440F551F59F01E
:100D20005F3F71F04795880F97FB991F61F09F3FD8
:100D300079F087950895121613061406551FF2CF01
:100D40004695F1DF08C0161617061806991FF1CF51
:100D500086957105610508940895E894BB27662778
:100D60007727CB0197F908950E943F0608F48FEF8B
:100D700008950E94CC060C947A060E946C0638F006
:100D80000E94730620F0952311F00C9463060C94D6
:100D9000690611240C94AE060E948B0670F3959F91
:100DA000C1F3950F50E0551F629FF001729FBB2762
:100DB000F00DB11D639FAA27F00DB11DAA1F649FFE
:100DC0006627B00DA11D661F829F2227B00DA11DB1
:100DD000621F739FB00DA11D621F839FA00D611D37
:100DE000221F749F3327A00D611D231F849F600D58
:100DF000211D822F762F6A2F11249F5750409AF081
:100E0000F1F088234AF0EE0FFF1FBB1F661F771F0C
:100E1000881F91505040A9F79E3F510580F00C94D7
:100E200063060C94AE065F3FE4F3983ED4F38695D8
:100E300077956795B795F795E7959F5FC1F7FE2B77
:100E4000880F911D9695879597F908950E943F0602
:100E5000880B990B0895A1E21A2EAA1BBB1BFD015A
:100E60000DC0AA1FBB1FEE1FFF1FA217B307E40789
:100E7000F50720F0A21BB30BE40BF50B661F771FE1
:100E8000881F991F1A9469F76095709580959095C1
:100E90009B01AC01BD01CF010895EE0FFF1F05902E
:0A0EA000F491E02D0994F894FFCFBF
:100EAA00000000002C018C00B9007901EA00C8009A
:100EBA00DC00412074656E73616F206E6120656E7F
:100ECA007472616461204130203D20006E616E00C1
:0C0EDA00696E66006F7666000D0A00006D
:00000001FF
