:100000000C9462000C948A000C948A000C948A0070
:100010000C948A000C948A000C948A000C948A0038
:100020000C948A000C948A000C948A000C948A0028
:100030000C948A000C948A000C948A000C948A0018
:100040000C94A1030C948A000C946F030C94490344
:100050000C948A000C948A000C948A000C948A00F8
:100060000C948A000C948A000000000024002700F1
:100070002A000000000023002600290000000000E4
:10008000250028002B0004040404040404040202D4
:100090000202020203030303030301020408102007
:1000A0004080010204081020010204081020000012
:1000B0000008000201000003040700000000000027
:1000C0000000260511241FBECFEFD8E0DEBFCDBF54
:1000D00011E0A0E0B1E0EAE7FBE002C005900D927C
:1000E000A636B107D9F722E0A6E6B1E001C01D921D
:1000F000A231B207E1F710E0C2E6D0E004C02197D8
:10010000FE010E94B505C136D107C9F70E94EB0375
:100110000C94BB050C940000AF92BF92CF92DF927B
:10012000EF92FF920F931F93CF93DF936C017B01AC
:100130008B01040F151FEB015E01AE18BF08C0173D
:10014000D10759F06991D601ED91FC910190F081B0
:10015000E02DC6010995892B79F7C501DF91CF9173
:100160001F910F91FF90EF90DF90CF90BF90AF90D5
:100170000895FC01538D448D252F30E0842F90E0AD
:10018000821B930B541710F0CF9608950197089592
:10019000FC01918D828D981761F0A28DAE0FBF2F5B
:1001A000B11D5D968C91928D9F5F9F73928F90E0B1
:1001B00008958FEF9FEF0895FC01918D828D981720
:1001C00031F0828DE80FF11D858D90E008958FEF5D
:1001D0009FEF0895FC01918D228D892F90E0805C26
:1001E0009F4F821B91098F739927089585E791E0AE
:1001F0000E94EA0021E0892B09F420E0822F089573
:1002000080E090E0892B29F00E94F60081110C9487
:1002100000000895FC01A48DA80FB92FB11DA35AA9
:10022000BF4F2C91848D90E001968F739927848F16
:10023000A689B7892C93A089B1898C918370806439
:100240008C93938D848D981306C00288F389E02DDA
:1002500080818F7D80830895EF92FF920F931F938B
:10026000CF93DF93EC0181E0888F9B8D8C8D981369
:100270001AC0E889F989808185FF15C09FB7F89475
:10028000EE89FF896083E889F989808183708064C1
:1002900080839FBF81E090E0DF91CF911F910F910C
:1002A000FF90EF900895F62E0B8D10E00F5F1F4F1B
:1002B0000F731127E02E8C8D8E110CC00FB607FC2A
:1002C000FACFE889F989808185FFF5CFCE010E94B8
:1002D0000A01F1CFEB8DEC0FFD2FF11DE35AFF4F1B
:1002E000F0829FB7F8940B8FEA89FB898081806246
:1002F000CFCFCF93DF93EC01888D8823B9F0AA8903
:10030000BB89E889F9898C9185FD03C0808186FDD0
:100310000DC00FB607FCF7CF8C9185FFF2CF80811F
:1003200085FFEDCFCE010E940A01E9CFDF91CF9189
:100330000895833081F028F4813099F08230A9F05B
:1003400008958730A9F08830C9F08430B1F48091E5
:1003500080008F7D03C0809180008F778093800024
:10036000089584B58F7784BD089584B58F7DFBCFC4
:100370008091B0008F778093B00008958091B00095
:100380008F7DF9CF1F93CF93DF93E8EBF0E094914B
:10039000E4EAF0E0D491E0E9F0E0C491CC23B9F0D4
:1003A000182F992319F0892F0E949901EC2FF0E062
:1003B000EE0FFF1FE458FF4FA591B4918FB7F8944B
:1003C000EC91111108C0D095DE23DC938FBFDF9133
:1003D000CF911F910895DE2BF8CFCF93DF9390E05C
:1003E000FC01E656FF4F24918A579F4FFC018491F0
:1003F0008823C9F090E0880F991FFC01E859FF4F4E
:10040000A591B491FC01E458FF4FC591D4916111BD
:100410000DC09FB7F8948C91209582238C9388818E
:10042000282328839FBFDF91CF910895623051F434
:100430009FB7F8943C91822F809583238C93E88119
:100440002E2BEFCF8FB7F894EC912E2B2C938FBFE0
:10045000EACFCF93DF93EC0161E08AE00E94ED01E7
:10046000209729F480E0DF91CF910C94C201CF3F17
:10047000D10511F481E0F7CFE8EBF0E0E491E3304F
:1004800029F140F4E130B1F0E230D9F0C038D105C3
:100490008CF7E8CFE73021F1E83051F1E430B1F7E3
:1004A00080918000806280938000D0938B00C09305
:1004B0008A0004C084B5806884BDC7BDDF91CF9138
:1004C000089584B5806284BDC8BDF8CF8091800056
:1004D000806880938000D0938900C0938800EECF1D
:1004E0008091B00080688093B000C093B300E6CFE5
:1004F0008091B00080628093B000C093B400DECFE2
:100500008E50806480937C0080917A008064809318
:100510007A0080917A0086FDFCCF809178009091DE
:10052000790008953FB7F89480916B0190916C0128
:10053000A0916D01B0916E0126B5A89B05C02F3F1B
:1005400019F00196A11DB11D3FBFBA2FA92F982FF9
:100550008827BC01CD01620F711D811D911D42E0F4
:10056000660F771F881F991F4A95D1F70895FC01E0
:1005700001900020E9F73197AF01481B590BBC01EE
:1005800085E791E00C948C008F929F92AF92BF927E
:10059000CF92DF92EF92FF920F931F93CF93DF934F
:1005A000CDB7DEB7A1970FB6F894DEBF0FBECDBFB3
:1005B0006C01990FEE08FF08F7FE47C06DE285E772
:1005C00091E00E942C018C0122273327A9012C19CC
:1005D0003D094E095F0919A2CE0181967C019AE07E
:1005E000892E912CA12CB12CCA01B901A50194012D
:1005F0000E947D05605DF70162937F012115310541
:100600004105510589F790E080E0309719F0CF015E
:100610000E94B702080F191F82E191E00E94B70201
:10062000800F911FA1960FB6F894DEBF0FBECDBF0D
:10063000DF91CF911F910F91FF90EF90DF90CF90BE
:10064000BF90AF909F908F900895A701960119A237
:100650008E010F5D1F4F8AE0C82ED12CE12CF12CAA
:10066000CA01B901A70196010E947D05605DF801EC
:1006700062938F01211531054105510589F73097A6
:1006800029F0CF010E94B7028C01C6CF10E000E034
:10069000C3CF1F920F920FB60F9211242F933F9347
:1006A0004F935F936F937F938F939F93AF93BF937A
:1006B000EF93FF9385E791E00E940A01FF91EF918C
:1006C000BF91AF919F918F917F916F915F914F916A
:1006D0003F912F910F900FBE0F901F9018951F9272
:1006E0000F920FB60F9211242F938F939F93EF9336
:1006F000FF93E0918501F09186018081E0918B016B
:10070000F0918C0182FD1BC0908180918E018F5FE2
:100710008F7320918F01821741F0E0918E01F0E0FC
:10072000EB58FE4F958F80938E01FF91EF919F9133
:100730008F912F910F900FBE0F901F901895808171
:10074000F4CF1F920F920FB60F9211242F933F9365
:100750008F939F93AF93BF938091670190916801AE
:10076000A0916901B0916A013091660123E0230FE5
:100770002D3758F50196A11DB11D20936601809378
:10078000670190936801A0936901B0936A01809119
:100790006B0190916C01A0916D01B0916E01019679
:1007A000A11DB11D80936B0190936C01A0936D010D
:1007B000B0936E01BF91AF919F918F913F912F9117
:1007C0000F900FBE0F901F90189526E8230F0296EA
:1007D000A11DB11DD2CF789484B5826084BD84B54B
:1007E000816084BD85B5826085BD85B5816085BD2C
:1007F00080916E00816080936E00109281008091E4
:10080000810082608093810080918100816080936B
:100810008100809180008160809380008091B10090
:1008200084608093B1008091B00081608093B000BB
:1008300080917A00846080937A0080917A0082604F
:1008400080937A0080917A00816080937A00809111
:100850007A00806880937A001092C10062E08BE099
:100860000E94ED0161E08AE00E94ED0160E08FE00E
:100870000E94ED0160E08EE00E94ED01E0918501B3
:10088000F091860182E08083E0918101F091820104
:100890001082E0918301F091840187E680831092B9
:1008A0008D01E0918901F0918A0186E08083E091D9
:1008B0008701F0918801808180618083E0918701C8
:1008C000F0918801808188608083E0918701F091B8
:1008D0008801808180688083E0918701F0918801A0
:1008E00080818F7D808325EA222E20E0322E01E94F
:1008F00010E033ED432E33E0532E612C712CC0E019
:10090000D0E0E9EBF0E08491F101F490F801E4909B
:10091000EE20D9F081110E949901EE2DF0E0EE0F4A
:10092000FF1FEE58FF4FA591B4918C91F82269F00A
:1009300090E080E00E942902209719F30E94F600BF
:100940008823F9F20E940000DCCF8FE00E94800231
:100950002FEF30E0DC010E94AE052FEF33E040E0E6
:1009600050E00E9453056901309374012093730194
:100970008EE00E9480029C01990F440B550B2B5076
:10098000310941095109AFEFB0E00E947205A3019E
:1009900092010E9453053093720120937101211539
:1009A000310509F44DC0C601821B930B9093700171
:1009B00080936F010E94290285E191E00E94B702B5
:1009C00080917301909174010E94C40283E391E0CD
:1009D0000E94B70280917101909172010E94C4023D
:1009E0008BE491E00E94B70280916F0190917001B9
:1009F0000E94C4020E9492024B015C0184EFC82E47
:100A0000DD24D394E12CF12C0E949202681979091B
:100A10008A099B09683E734081059105A8F3F1E0BE
:100A2000CF1AD108E108F10828EE820E23E0921EC9
:100A3000A11CB11CC114D104E104F10429F77CCF3D
:100A4000D0927001C0926F01C601B4CFE5E7F1E02A
:100A50001382128288EE93E0A0E0B0E08483958355
:100A6000A683B78384E091E09183808385EC90E056
:100A70009587848784EC90E09787868780EC90E068
:100A8000918B808B81EC90E0938B828B82EC90E059
:100A9000958B848B86EC90E0978B868B118E128ED3
:100AA000138E148E0895052E97FB1EF400940E9459
:100AB0006A0557FD07D00E947D0507FC03D04EF460
:100AC0000C946A0550954095309521953F4F4F4FB6
:100AD0005F4F089590958095709561957F4F8F4FEA
:100AE0009F4F08950E949F05A59F900DB49F900D64
:100AF000A49F800D911D11240895A1E21A2EAA1B16
:100B0000BB1BFD010DC0AA1FBB1FEE1FFF1FA217BD
:100B1000B307E407F50720F0A21BB30BE40BF50BBA
:100B2000661F771F881F991F1A9469F76095709543
:100B3000809590959B01AC01BD01CF010895A29FC6
:100B4000B001B39FC001A39F700D811D1124911DA1
:100B5000B29F700D811D1124911D08950E949F0563
:100B6000B7FF0895821B930B0895EE0FFF1F0590AA
:0A0B7000F491E02D0994F894FFCFF2
:100B7A00000000002C018C00B9007901EA00C800CD
:100B8A00DC000D0A004C554D494E4F53494441442F
:100B9A0045204445205245464552454E4349412049
:100BAA003D20004C554D494E4F5349444144452040
:100BBA0045585445524E41203D20004C554D494E12
:100BCA004F534944414445204E41204C414D5041E8
:060BDA004441203D200013
:00000001FF
